{
  "contractName": "Swap",
  "abi": [
    {
      "inputs": [
        {
          "internalType": "contract AToken",
          "name": "_atoken",
          "type": "address"
        },
        {
          "internalType": "contract BToken",
          "name": "_btoken",
          "type": "address"
        }
      ],
      "payable": false,
      "stateMutability": "nonpayable",
      "type": "constructor"
    },
    {
      "constant": true,
      "inputs": [],
      "name": "atoken",
      "outputs": [
        {
          "internalType": "contract AToken",
          "name": "",
          "type": "address"
        }
      ],
      "payable": false,
      "stateMutability": "view",
      "type": "function"
    },
    {
      "constant": true,
      "inputs": [],
      "name": "btoken",
      "outputs": [
        {
          "internalType": "contract BToken",
          "name": "",
          "type": "address"
        }
      ],
      "payable": false,
      "stateMutability": "view",
      "type": "function"
    },
    {
      "constant": true,
      "inputs": [],
      "name": "name",
      "outputs": [
        {
          "internalType": "string",
          "name": "",
          "type": "string"
        }
      ],
      "payable": false,
      "stateMutability": "view",
      "type": "function"
    },
    {
      "constant": true,
      "inputs": [],
      "name": "owner",
      "outputs": [
        {
          "internalType": "address",
          "name": "",
          "type": "address"
        }
      ],
      "payable": false,
      "stateMutability": "view",
      "type": "function"
    },
    {
      "constant": true,
      "inputs": [],
      "name": "rateA2B",
      "outputs": [
        {
          "internalType": "uint256",
          "name": "",
          "type": "uint256"
        }
      ],
      "payable": false,
      "stateMutability": "view",
      "type": "function"
    },
    {
      "constant": true,
      "inputs": [],
      "name": "rateB2A",
      "outputs": [
        {
          "internalType": "uint256",
          "name": "",
          "type": "uint256"
        }
      ],
      "payable": false,
      "stateMutability": "view",
      "type": "function"
    },
    {
      "constant": false,
      "inputs": [
        {
          "internalType": "uint256",
          "name": "_addLiquidityAmountA",
          "type": "uint256"
        },
        {
          "internalType": "uint256",
          "name": "_addLiquidityAmountB",
          "type": "uint256"
        }
      ],
      "name": "addLiquidity",
      "outputs": [],
      "payable": false,
      "stateMutability": "nonpayable",
      "type": "function"
    },
    {
      "constant": false,
      "inputs": [
        {
          "internalType": "uint256",
          "name": "_withdrawLiquidityAmountA",
          "type": "uint256"
        },
        {
          "internalType": "uint256",
          "name": "_withdrawLiquidityAmountB",
          "type": "uint256"
        }
      ],
      "name": "withdrawLiquidity",
      "outputs": [],
      "payable": false,
      "stateMutability": "nonpayable",
      "type": "function"
    },
    {
      "constant": false,
      "inputs": [
        {
          "internalType": "uint256",
          "name": "_amountB",
          "type": "uint256"
        }
      ],
      "name": "buyAwithB",
      "outputs": [],
      "payable": false,
      "stateMutability": "nonpayable",
      "type": "function"
    },
    {
      "constant": false,
      "inputs": [
        {
          "internalType": "uint256",
          "name": "_amountA",
          "type": "uint256"
        }
      ],
      "name": "buyBwithA",
      "outputs": [],
      "payable": false,
      "stateMutability": "nonpayable",
      "type": "function"
    }
  ],
  "bytecode": "0x60806040526040518060400160405280600e81526020017f4c697175696469747920506f6f6c000000000000000000000000000000000000815250600090805190602001906200005192919062000175565b50600160045560016005553480156200006957600080fd5b50604051620018a1380380620018a1833981810160405260408110156200008f57600080fd5b81019080805190602001909291908051906020019092919050505081600160006101000a81548173ffffffffffffffffffffffffffffffffffffffff021916908373ffffffffffffffffffffffffffffffffffffffff16021790555080600260006101000a81548173ffffffffffffffffffffffffffffffffffffffff021916908373ffffffffffffffffffffffffffffffffffffffff16021790555033600360006101000a81548173ffffffffffffffffffffffffffffffffffffffff021916908373ffffffffffffffffffffffffffffffffffffffff160217905550505062000224565b828054600181600116156101000203166002900490600052602060002090601f016020900481019282601f10620001b857805160ff1916838001178555620001e9565b82800160010185558215620001e9579182015b82811115620001e8578251825591602001919060010190620001cb565b5b509050620001f89190620001fc565b5090565b6200022191905b808211156200021d57600081600090555060010162000203565b5090565b90565b61166d80620002346000396000f3fe608060405234801561001057600080fd5b506004361061009e5760003560e01c80639268602e116100665780639268602e146101e457806394d326c41461021257806396c993fb146102405780639cd441da1461028a578063a293b0cd146102c25761009e565b806306fdde03146100a35780632961f486146101265780637ddced5a146101445780637e8721d11461017c5780638da5cb5b1461019a575b600080fd5b6100ab61030c565b6040518080602001828103825283818151815260200191508051906020019080838360005b838110156100eb5780820151818401526020810190506100d0565b50505050905090810190601f1680156101185780820380516001836020036101000a031916815260200191505b509250505060405180910390f35b61012e6103aa565b6040518082815260200191505060405180910390f35b61017a6004803603604081101561015a57600080fd5b8101908080359060200190929190803590602001909291905050506103b0565b005b610184610858565b6040518082815260200191505060405180910390f35b6101a261085e565b604051808273ffffffffffffffffffffffffffffffffffffffff1673ffffffffffffffffffffffffffffffffffffffff16815260200191505060405180910390f35b610210600480360360208110156101fa57600080fd5b8101908080359060200190929190505050610884565b005b61023e6004803603602081101561022857600080fd5b8101908080359060200190929190505050610c5b565b005b610248611032565b604051808273ffffffffffffffffffffffffffffffffffffffff1673ffffffffffffffffffffffffffffffffffffffff16815260200191505060405180910390f35b6102c0600480360360408110156102a057600080fd5b810190808035906020019092919080359060200190929190505050611058565b005b6102ca611568565b604051808273ffffffffffffffffffffffffffffffffffffffff1673ffffffffffffffffffffffffffffffffffffffff16815260200191505060405180910390f35b60008054600181600116156101000203166002900480601f0160208091040260200160405190810160405280929190818152602001828054600181600116156101000203166002900480156103a25780601f10610377576101008083540402835291602001916103a2565b820191906000526020600020905b81548152906001019060200180831161038557829003601f168201915b505050505081565b60055481565b600360009054906101000a900473ffffffffffffffffffffffffffffffffffffffff1673ffffffffffffffffffffffffffffffffffffffff163373ffffffffffffffffffffffffffffffffffffffff161461040a57600080fd5b6000821015610464576040517f08c379a000000000000000000000000000000000000000000000000000000000815260040180806020018281038252602d8152602001806115b7602d913960400191505060405180910390fd5b60008110156104be576040517f08c379a000000000000000000000000000000000000000000000000000000000815260040180806020018281038252602d81526020018061160c602d913960400191505060405180910390fd5b81600160009054906101000a900473ffffffffffffffffffffffffffffffffffffffff1673ffffffffffffffffffffffffffffffffffffffff166370a08231306040518263ffffffff1660e01b8152600401808273ffffffffffffffffffffffffffffffffffffffff1673ffffffffffffffffffffffffffffffffffffffff16815260200191505060206040518083038186803b15801561055e57600080fd5b505afa158015610572573d6000803e3d6000fd5b505050506040513d602081101561058857600080fd5b810190808051906020019092919050505010156105a457600080fd5b80600260009054906101000a900473ffffffffffffffffffffffffffffffffffffffff1673ffffffffffffffffffffffffffffffffffffffff166370a08231306040518263ffffffff1660e01b8152600401808273ffffffffffffffffffffffffffffffffffffffff1673ffffffffffffffffffffffffffffffffffffffff16815260200191505060206040518083038186803b15801561064457600080fd5b505afa158015610658573d6000803e3d6000fd5b505050506040513d602081101561066e57600080fd5b8101908080519060200190929190505050101561068a57600080fd5b600160009054906101000a900473ffffffffffffffffffffffffffffffffffffffff1673ffffffffffffffffffffffffffffffffffffffff1663a9059cbb33846040518363ffffffff1660e01b8152600401808373ffffffffffffffffffffffffffffffffffffffff1673ffffffffffffffffffffffffffffffffffffffff16815260200182815260200192505050602060405180830381600087803b15801561073357600080fd5b505af1158015610747573d6000803e3d6000fd5b505050506040513d602081101561075d57600080fd5b810190808051906020019092919050505050600260009054906101000a900473ffffffffffffffffffffffffffffffffffffffff1673ffffffffffffffffffffffffffffffffffffffff1663a9059cbb33836040518363ffffffff1660e01b8152600401808373ffffffffffffffffffffffffffffffffffffffff1673ffffffffffffffffffffffffffffffffffffffff16815260200182815260200192505050602060405180830381600087803b15801561081857600080fd5b505af115801561082c573d6000803e3d6000fd5b505050506040513d602081101561084257600080fd5b8101908080519060200190929190505050505050565b60045481565b600360009054906101000a900473ffffffffffffffffffffffffffffffffffffffff1681565b80600160009054906101000a900473ffffffffffffffffffffffffffffffffffffffff1673ffffffffffffffffffffffffffffffffffffffff166370a08231336040518263ffffffff1660e01b8152600401808273ffffffffffffffffffffffffffffffffffffffff1673ffffffffffffffffffffffffffffffffffffffff16815260200191505060206040518083038186803b15801561092457600080fd5b505afa158015610938573d6000803e3d6000fd5b505050506040513d602081101561094e57600080fd5b8101908080519060200190929190505050101561096a57600080fd5b60006004548202905080600260009054906101000a900473ffffffffffffffffffffffffffffffffffffffff1673ffffffffffffffffffffffffffffffffffffffff166370a08231306040518263ffffffff1660e01b8152600401808273ffffffffffffffffffffffffffffffffffffffff1673ffffffffffffffffffffffffffffffffffffffff16815260200191505060206040518083038186803b158015610a1357600080fd5b505afa158015610a27573d6000803e3d6000fd5b505050506040513d6020811015610a3d57600080fd5b81019080805190602001909291905050501015610a5957600080fd5b600160009054906101000a900473ffffffffffffffffffffffffffffffffffffffff1673ffffffffffffffffffffffffffffffffffffffff166323b872dd3330856040518463ffffffff1660e01b8152600401808473ffffffffffffffffffffffffffffffffffffffff1673ffffffffffffffffffffffffffffffffffffffff1681526020018373ffffffffffffffffffffffffffffffffffffffff1673ffffffffffffffffffffffffffffffffffffffff1681526020018281526020019350505050602060405180830381600087803b158015610b3657600080fd5b505af1158015610b4a573d6000803e3d6000fd5b505050506040513d6020811015610b6057600080fd5b810190808051906020019092919050505050600260009054906101000a900473ffffffffffffffffffffffffffffffffffffffff1673ffffffffffffffffffffffffffffffffffffffff1663a9059cbb33836040518363ffffffff1660e01b8152600401808373ffffffffffffffffffffffffffffffffffffffff1673ffffffffffffffffffffffffffffffffffffffff16815260200182815260200192505050602060405180830381600087803b158015610c1b57600080fd5b505af1158015610c2f573d6000803e3d6000fd5b505050506040513d6020811015610c4557600080fd5b8101908080519060200190929190505050505050565b80600260009054906101000a900473ffffffffffffffffffffffffffffffffffffffff1673ffffffffffffffffffffffffffffffffffffffff166370a08231336040518263ffffffff1660e01b8152600401808273ffffffffffffffffffffffffffffffffffffffff1673ffffffffffffffffffffffffffffffffffffffff16815260200191505060206040518083038186803b158015610cfb57600080fd5b505afa158015610d0f573d6000803e3d6000fd5b505050506040513d6020811015610d2557600080fd5b81019080805190602001909291905050501015610d4157600080fd5b60006005548202905080600160009054906101000a900473ffffffffffffffffffffffffffffffffffffffff1673ffffffffffffffffffffffffffffffffffffffff166370a08231306040518263ffffffff1660e01b8152600401808273ffffffffffffffffffffffffffffffffffffffff1673ffffffffffffffffffffffffffffffffffffffff16815260200191505060206040518083038186803b158015610dea57600080fd5b505afa158015610dfe573d6000803e3d6000fd5b505050506040513d6020811015610e1457600080fd5b81019080805190602001909291905050501015610e3057600080fd5b600260009054906101000a900473ffffffffffffffffffffffffffffffffffffffff1673ffffffffffffffffffffffffffffffffffffffff166323b872dd3330856040518463ffffffff1660e01b8152600401808473ffffffffffffffffffffffffffffffffffffffff1673ffffffffffffffffffffffffffffffffffffffff1681526020018373ffffffffffffffffffffffffffffffffffffffff1673ffffffffffffffffffffffffffffffffffffffff1681526020018281526020019350505050602060405180830381600087803b158015610f0d57600080fd5b505af1158015610f21573d6000803e3d6000fd5b505050506040513d6020811015610f3757600080fd5b810190808051906020019092919050505050600160009054906101000a900473ffffffffffffffffffffffffffffffffffffffff1673ffffffffffffffffffffffffffffffffffffffff1663a9059cbb33836040518363ffffffff1660e01b8152600401808373ffffffffffffffffffffffffffffffffffffffff1673ffffffffffffffffffffffffffffffffffffffff16815260200182815260200192505050602060405180830381600087803b158015610ff257600080fd5b505af1158015611006573d6000803e3d6000fd5b505050506040513d602081101561101c57600080fd5b8101908080519060200190929190505050505050565b600260009054906101000a900473ffffffffffffffffffffffffffffffffffffffff1681565b600360009054906101000a900473ffffffffffffffffffffffffffffffffffffffff1673ffffffffffffffffffffffffffffffffffffffff163373ffffffffffffffffffffffffffffffffffffffff16146110b257600080fd5b600082101561110c576040517f08c379a000000000000000000000000000000000000000000000000000000000815260040180806020018281038252602881526020018061158f6028913960400191505060405180910390fd5b6000811015611166576040517f08c379a00000000000000000000000000000000000000000000000000000000081526004018080602001828103825260288152602001806115e46028913960400191505060405180910390fd5b81600160009054906101000a900473ffffffffffffffffffffffffffffffffffffffff1673ffffffffffffffffffffffffffffffffffffffff166370a08231336040518263ffffffff1660e01b8152600401808273ffffffffffffffffffffffffffffffffffffffff1673ffffffffffffffffffffffffffffffffffffffff16815260200191505060206040518083038186803b15801561120657600080fd5b505afa15801561121a573d6000803e3d6000fd5b505050506040513d602081101561123057600080fd5b8101908080519060200190929190505050101561124c57600080fd5b80600260009054906101000a900473ffffffffffffffffffffffffffffffffffffffff1673ffffffffffffffffffffffffffffffffffffffff166370a08231336040518263ffffffff1660e01b8152600401808273ffffffffffffffffffffffffffffffffffffffff1673ffffffffffffffffffffffffffffffffffffffff16815260200191505060206040518083038186803b1580156112ec57600080fd5b505afa158015611300573d6000803e3d6000fd5b505050506040513d602081101561131657600080fd5b8101908080519060200190929190505050101561133257600080fd5b600160009054906101000a900473ffffffffffffffffffffffffffffffffffffffff1673ffffffffffffffffffffffffffffffffffffffff166323b872dd3330856040518463ffffffff1660e01b8152600401808473ffffffffffffffffffffffffffffffffffffffff1673ffffffffffffffffffffffffffffffffffffffff1681526020018373ffffffffffffffffffffffffffffffffffffffff1673ffffffffffffffffffffffffffffffffffffffff1681526020018281526020019350505050602060405180830381600087803b15801561140f57600080fd5b505af1158015611423573d6000803e3d6000fd5b505050506040513d602081101561143957600080fd5b810190808051906020019092919050505050600260009054906101000a900473ffffffffffffffffffffffffffffffffffffffff1673ffffffffffffffffffffffffffffffffffffffff166323b872dd3330846040518463ffffffff1660e01b8152600401808473ffffffffffffffffffffffffffffffffffffffff1673ffffffffffffffffffffffffffffffffffffffff1681526020018373ffffffffffffffffffffffffffffffffffffffff1673ffffffffffffffffffffffffffffffffffffffff1681526020018281526020019350505050602060405180830381600087803b15801561152857600080fd5b505af115801561153c573d6000803e3d6000fd5b505050506040513d602081101561155257600080fd5b8101908080519060200190929190505050505050565b600160009054906101000a900473ffffffffffffffffffffffffffffffffffffffff168156fe616464696e6720616d6f756e7420412073686f756c642062652067726561746572207468616e20307769746864726177696e6720616d6f756e7420412073686f756c642062652067726561746572207468616e2030616464696e6720616d6f756e7420422073686f756c642062652067726561746572207468616e20307769746864726177696e6720616d6f756e7420422073686f756c642062652067726561746572207468616e2030a265627a7a7231582013ade1ddccdd6e86ec0e4af8007bf52acf5a881f5936c291ea0e6109a25efc5164736f6c63430005100032",
  "source": "pragma solidity ^0.5.0;\n\nimport \"./AToken.sol\";\nimport \"./BToken.sol\";\n\ncontract Swap {\n\tstring public name = \"Liquidity Pool\";\n\tAToken public atoken;\n\tBToken public btoken;\n\taddress public owner;\n\t//set transfer rate\n\tuint public rateA2B = 1;\n\tuint public rateB2A = 1;\n\t\n\n\tconstructor(AToken _atoken, BToken _btoken) public {\n\t\tatoken = _atoken;\n\t\tbtoken = _btoken;\n\t\t// set deployer as owner of the contract\n\t\towner = msg.sender;\n\t}\n\n\tfunction addLiquidity(uint _addLiquidityAmountA, uint _addLiquidityAmountB) public {\n\t\t//only owner can add liquidity && adding amount should >= 0 && liquidity provider should have enough token \n\t\trequire(msg.sender == owner);\n\t\trequire(_addLiquidityAmountA >= 0, \"adding amount A should be greater than 0\");\n\t\trequire(_addLiquidityAmountB >= 0, \"adding amount B should be greater than 0\");\n\t\trequire(atoken.balanceOf(msg.sender) >= _addLiquidityAmountA);\n\t\trequire(btoken.balanceOf(msg.sender) >= _addLiquidityAmountB);\n\n\t\t// add liquidity \n\t\tatoken.transferFrom(msg.sender, address(this), _addLiquidityAmountA);\n\t\tbtoken.transferFrom(msg.sender, address(this), _addLiquidityAmountB);\n\n\t}\n\n\tfunction withdrawLiquidity(uint _withdrawLiquidityAmountA, uint _withdrawLiquidityAmountB) public {\n\t\t//only owner can withdraw liquidity && \n\t\trequire(msg.sender == owner);\n\t\trequire(_withdrawLiquidityAmountA >= 0, \"withdrawing amount A should be greater than 0\");\n\t\trequire(_withdrawLiquidityAmountB >= 0, \"withdrawing amount B should be greater than 0\");\n\t\trequire(atoken.balanceOf(address(this)) >= _withdrawLiquidityAmountA);\n\t\trequire(btoken.balanceOf(address(this)) >= _withdrawLiquidityAmountB);\n\n\t\t//withdraw liquidity\n\t\tatoken.transfer(msg.sender, _withdrawLiquidityAmountA);\n\t\tbtoken.transfer(msg.sender, _withdrawLiquidityAmountB);\n\t}\n\n\tfunction buyAwithB(uint _amountB) public {\n\n\t\t//investors cannot sell more tokens B than they have\n\t\trequire(btoken.balanceOf(msg.sender) >= _amountB);\n\n\t\t//calculate how much A token for redemption\n\t\tuint AtokenAmount = _amountB * rateB2A;\n\n\t\t//swap has enough token A \n\t\trequire(atoken.balanceOf(address(this)) >= AtokenAmount);\n\n\t\t//transfer B token from investor's wallet to swap\n\t\tbtoken.transferFrom(msg.sender, address(this), _amountB);\n\n\t\t//transfer A token from swap to investor\n\t\tatoken.transfer(msg.sender, AtokenAmount);\n\t}\n\n\tfunction buyBwithA(uint _amountA) public {\n\n\t\t//investors cannot sell more tokens A than they have\n\t\trequire(atoken.balanceOf(msg.sender) >= _amountA);\n\n\t\t//calculate how much B token for redemption\n\t\tuint BtokenAmount = _amountA * rateA2B;\n\n\t\t//swap has enough token B \n\t\trequire(btoken.balanceOf(address(this)) >= BtokenAmount);\n\n\t\t//transfer A token from investor's wallet to swap\n\t\tatoken.transferFrom(msg.sender, address(this), _amountA);\n\n\t\t//transfer B token from swap to investor\n\t\tbtoken.transfer(msg.sender, BtokenAmount);\n\t}\n\n\n\n\n\n\n\n\n\n}",
  "sourcePath": "/Users/kevinli/defi_pool/contracts/Swap.sol",
  "compiler": {
    "name": "solc",
    "version": "0.5.16+commit.9c3226ce.Emscripten.clang"
  },
  "schemaVersion": "3.4.5",
  "updatedAt": "2022-03-06T10:13:20.604Z",
  "networkType": "ethereum",
  "devdoc": {
    "methods": {}
  },
  "userdoc": {
    "methods": {}
  }
}